{
  "contractName": "SimpleAuction",
  "abi": [
    {
      "anonymous": false,
      "inputs": [
        {
          "indexed": false,
          "internalType": "uint256",
          "name": "auctionId",
          "type": "uint256"
        },
        {
          "indexed": false,
          "internalType": "address",
          "name": "creator",
          "type": "address"
        },
        {
          "indexed": false,
          "internalType": "address",
          "name": "beneficiary",
          "type": "address"
        },
        {
          "indexed": false,
          "internalType": "uint256",
          "name": "startTime",
          "type": "uint256"
        },
        {
          "indexed": false,
          "internalType": "uint256",
          "name": "endTime",
          "type": "uint256"
        }
      ],
      "name": "AuctionCreated",
      "type": "event"
    },
    {
      "anonymous": false,
      "inputs": [
        {
          "indexed": false,
          "internalType": "uint256",
          "name": "auctionId",
          "type": "uint256"
        },
        {
          "indexed": false,
          "internalType": "address",
          "name": "winner",
          "type": "address"
        },
        {
          "indexed": false,
          "internalType": "uint256",
          "name": "amount",
          "type": "uint256"
        }
      ],
      "name": "AuctionEnded",
      "type": "event"
    },
    {
      "anonymous": false,
      "inputs": [
        {
          "indexed": false,
          "internalType": "uint256",
          "name": "auctionId",
          "type": "uint256"
        },
        {
          "indexed": false,
          "internalType": "address",
          "name": "bidder",
          "type": "address"
        },
        {
          "indexed": false,
          "internalType": "uint256",
          "name": "amount",
          "type": "uint256"
        }
      ],
      "name": "BidRefunded",
      "type": "event"
    },
    {
      "anonymous": false,
      "inputs": [
        {
          "indexed": false,
          "internalType": "uint256",
          "name": "auctionId",
          "type": "uint256"
        },
        {
          "indexed": false,
          "internalType": "address",
          "name": "bidder",
          "type": "address"
        },
        {
          "indexed": false,
          "internalType": "uint256",
          "name": "amount",
          "type": "uint256"
        }
      ],
      "name": "HighestBidIncreased",
      "type": "event"
    },
    {
      "inputs": [
        {
          "internalType": "uint256",
          "name": "",
          "type": "uint256"
        }
      ],
      "name": "activeAuctions",
      "outputs": [
        {
          "internalType": "uint256",
          "name": "",
          "type": "uint256"
        }
      ],
      "stateMutability": "view",
      "type": "function"
    },
    {
      "inputs": [],
      "name": "auctionCount",
      "outputs": [
        {
          "internalType": "uint256",
          "name": "",
          "type": "uint256"
        }
      ],
      "stateMutability": "view",
      "type": "function"
    },
    {
      "inputs": [
        {
          "internalType": "uint256",
          "name": "",
          "type": "uint256"
        }
      ],
      "name": "auctions",
      "outputs": [
        {
          "internalType": "address",
          "name": "creator",
          "type": "address"
        },
        {
          "internalType": "address payable",
          "name": "beneficiary",
          "type": "address"
        },
        {
          "internalType": "uint256",
          "name": "startTime",
          "type": "uint256"
        },
        {
          "internalType": "uint256",
          "name": "endTime",
          "type": "uint256"
        },
        {
          "internalType": "uint256",
          "name": "highestBid",
          "type": "uint256"
        },
        {
          "internalType": "address",
          "name": "highestBidder",
          "type": "address"
        },
        {
          "internalType": "bool",
          "name": "ended",
          "type": "bool"
        },
        {
          "internalType": "string",
          "name": "title",
          "type": "string"
        },
        {
          "internalType": "string",
          "name": "description",
          "type": "string"
        },
        {
          "internalType": "string",
          "name": "imageUrl",
          "type": "string"
        }
      ],
      "stateMutability": "view",
      "type": "function"
    },
    {
      "inputs": [
        {
          "internalType": "uint256",
          "name": "",
          "type": "uint256"
        },
        {
          "internalType": "address",
          "name": "",
          "type": "address"
        }
      ],
      "name": "pendingReturns",
      "outputs": [
        {
          "internalType": "uint256",
          "name": "",
          "type": "uint256"
        }
      ],
      "stateMutability": "view",
      "type": "function"
    },
    {
      "inputs": [
        {
          "internalType": "address payable",
          "name": "_beneficiary",
          "type": "address"
        },
        {
          "internalType": "uint256",
          "name": "_duration",
          "type": "uint256"
        },
        {
          "internalType": "uint256",
          "name": "_startingPrice",
          "type": "uint256"
        },
        {
          "internalType": "string",
          "name": "_title",
          "type": "string"
        },
        {
          "internalType": "string",
          "name": "_description",
          "type": "string"
        },
        {
          "internalType": "string",
          "name": "_imageUrl",
          "type": "string"
        }
      ],
      "name": "createAuction",
      "outputs": [
        {
          "internalType": "uint256",
          "name": "",
          "type": "uint256"
        }
      ],
      "stateMutability": "nonpayable",
      "type": "function"
    },
    {
      "inputs": [
        {
          "internalType": "uint256",
          "name": "auctionId",
          "type": "uint256"
        }
      ],
      "name": "getAuction",
      "outputs": [
        {
          "internalType": "address",
          "name": "creator",
          "type": "address"
        },
        {
          "internalType": "address payable",
          "name": "beneficiary",
          "type": "address"
        },
        {
          "internalType": "uint256",
          "name": "startTime",
          "type": "uint256"
        },
        {
          "internalType": "uint256",
          "name": "endTime",
          "type": "uint256"
        },
        {
          "internalType": "uint256",
          "name": "highestBid",
          "type": "uint256"
        },
        {
          "internalType": "address",
          "name": "highestBidder",
          "type": "address"
        },
        {
          "internalType": "bool",
          "name": "ended",
          "type": "bool"
        },
        {
          "internalType": "string",
          "name": "title",
          "type": "string"
        },
        {
          "internalType": "string",
          "name": "description",
          "type": "string"
        },
        {
          "internalType": "string",
          "name": "imageUrl",
          "type": "string"
        }
      ],
      "stateMutability": "view",
      "type": "function"
    },
    {
      "inputs": [],
      "name": "getActiveAuctions",
      "outputs": [
        {
          "internalType": "uint256[]",
          "name": "",
          "type": "uint256[]"
        }
      ],
      "stateMutability": "view",
      "type": "function"
    },
    {
      "inputs": [
        {
          "internalType": "uint256",
          "name": "auctionId",
          "type": "uint256"
        }
      ],
      "name": "placeBid",
      "outputs": [],
      "stateMutability": "payable",
      "type": "function"
    },
    {
      "inputs": [
        {
          "internalType": "uint256",
          "name": "auctionId",
          "type": "uint256"
        }
      ],
      "name": "withdraw",
      "outputs": [],
      "stateMutability": "nonpayable",
      "type": "function"
    },
    {
      "inputs": [
        {
          "internalType": "uint256",
          "name": "auctionId",
          "type": "uint256"
        }
      ],
      "name": "endAuction",
      "outputs": [],
      "stateMutability": "nonpayable",
      "type": "function"
    },
    {
      "inputs": [
        {
          "internalType": "uint256",
          "name": "auctionId",
          "type": "uint256"
        },
        {
          "internalType": "address",
          "name": "bidder",
          "type": "address"
        }
      ],
      "name": "pendingReturn",
      "outputs": [
        {
          "internalType": "uint256",
          "name": "",
          "type": "uint256"
        }
      ],
      "stateMutability": "view",
      "type": "function"
    }
  ],
  "bytecode": "0x608060405234801561001057600080fd5b50611408806100206000396000f3fe60806040526004361061009c5760003560e01c80638ddac1ef116100645780638ddac1ef146101625780639979ef451461019a578063b1dc7b8b146101ad578063b9a2de3a146101cd578063cf44b5d5146101ed578063e5e68e9c1461020f57600080fd5b80632ad71573146100a15780632e1a7d4d146100ca578063571a26a0146100ec57806378bd793514610122578063790d859614610142575b600080fd5b3480156100ad57600080fd5b506100b760025481565b6040519081526020015b60405180910390f35b3480156100d657600080fd5b506100ea6100e5366004610f10565b61022f565b005b3480156100f857600080fd5b5061010c610107366004610f10565b61039b565b6040516100c19a99989796959493929190610f6f565b34801561012e57600080fd5b5061010c61013d366004610f10565b61059a565b34801561014e57600080fd5b506100b761015d366004610f10565b6107e8565b34801561016e57600080fd5b506100b761017d366004611014565b600160209081526000928352604080842090915290825290205481565b6100ea6101a8366004610f10565b610809565b3480156101b957600080fd5b506100b76101c8366004611014565b6109fd565b3480156101d957600080fd5b506100ea6101e8366004610f10565b610a27565b3480156101f957600080fd5b50610202610bef565b6040516100c19190611044565b34801561021b57600080fd5b506100b761022a36600461112b565b610c47565b60025481106102595760405162461bcd60e51b8152600401610250906111d8565b60405180910390fd5b6000818152600160209081526040808320338452909152902054806102b85760405162461bcd60e51b81526020600482015260156024820152744e6f20616d6f756e7420746f20776974686472617760581b6044820152606401610250565b60008281526001602090815260408083203380855292528083208390555183908381818185875af1925050503d8060008114610310576040519150601f19603f3d011682016040523d82523d6000602084013e610315565b606091505b50509050806103565760405162461bcd60e51b815260206004820152600d60248201526c1499599d5b990819985a5b1959609a1b6044820152606401610250565b604080518481523360208201529081018390527fa59312996dc68b7f0224b341fed75d5afeb3bb20624107d37942d14f594281569060600160405180910390a1505050565b60006020819052908152604090208054600182015460028301546003840154600485015460058601546006870180546001600160a01b03978816989688169795969495939493831693600160a01b90930460ff169291906103fb90611208565b80601f016020809104026020016040519081016040528092919081815260200182805461042790611208565b80156104745780601f1061044957610100808354040283529160200191610474565b820191906000526020600020905b81548152906001019060200180831161045757829003601f168201915b50505050509080600701805461048990611208565b80601f01602080910402602001604051908101604052809291908181526020018280546104b590611208565b80156105025780601f106104d757610100808354040283529160200191610502565b820191906000526020600020905b8154815290600101906020018083116104e557829003601f168201915b50505050509080600801805461051790611208565b80601f016020809104026020016040519081016040528092919081815260200182805461054390611208565b80156105905780601f1061056557610100808354040283529160200191610590565b820191906000526020600020905b81548152906001019060200180831161057357829003601f168201915b505050505090508a565b600080600080600080600060608060606002548b106105cb5760405162461bcd60e51b8152600401610250906111d8565b60008b81526020819052604090208054600182015460028301546003840154600485015460058601546006870180546001600160a01b039788169796871696831692600160a01b900460ff16919060078a019060088b0190839061062e90611208565b80601f016020809104026020016040519081016040528092919081815260200182805461065a90611208565b80156106a75780601f1061067c576101008083540402835291602001916106a7565b820191906000526020600020905b81548152906001019060200180831161068a57829003601f168201915b505050505092508180546106ba90611208565b80601f01602080910402602001604051908101604052809291908181526020018280546106e690611208565b80156107335780601f1061070857610100808354040283529160200191610733565b820191906000526020600020905b81548152906001019060200180831161071657829003601f168201915b5050505050915080805461074690611208565b80601f016020809104026020016040519081016040528092919081815260200182805461077290611208565b80156107bf5780601f10610794576101008083540402835291602001916107bf565b820191906000526020600020905b8154815290600101906020018083116107a257829003601f168201915b505050505090509a509a509a509a509a509a509a509a509a509a50509193959799509193959799565b600381815481106107f857600080fd5b600091825260209091200154905081565b600254811061082a5760405162461bcd60e51b8152600401610250906111d8565b600081815260208190526040902060038101544211156108805760405162461bcd60e51b8152602060048201526011602482015270105d58dd1a5bdb881a185cc8195b991959607a1b6044820152606401610250565b6005810154600160a01b900460ff16156108dc5760405162461bcd60e51b815260206004820152601f60248201527f41756374696f6e20686173206265656e206d616e75616c6c7920656e646564006044820152606401610250565b806004015434116109435760405162461bcd60e51b815260206004820152602b60248201527f426964206d75737420626520686967686572207468616e2063757272656e742060448201526a1a1a59da195cdd08189a5960aa1b6064820152608401610250565b60058101546001600160a01b031615610997576004810154600083815260016020908152604080832060058601546001600160a01b0316845290915281208054909190610991908490611258565b90915550505b34600482018190556005820180546001600160a01b031916339081179091556040805185815260208101929092528101919091527fda0a18da71d8ebd145966339a728fc0d8ccc07c22870d561890d823c515dda6b906060015b60405180910390a15050565b60008281526001602090815260408083206001600160a01b03851684529091529020545b92915050565b6002548110610a485760405162461bcd60e51b8152600401610250906111d8565b600081815260208190526040902080546001600160a01b0316331480610a715750806003015442115b610ad25760405162461bcd60e51b815260206004820152602c60248201527f4f6e6c792063726561746f722063616e20656e642061756374696f6e2062656660448201526b6f726520656e642074696d6560a01b6064820152608401610250565b6005810154600160a01b900460ff1615610b2e5760405162461bcd60e51b815260206004820152601960248201527f41756374696f6e2068617320616c726561647920656e646564000000000000006044820152606401610250565b60058101805460ff60a01b1916600160a01b179055610b4c82610e54565b60058101546001600160a01b031615610ba157600181015460048201546040516001600160a01b039092169181156108fc0291906000818181858888f19350505050158015610b9f573d6000803e3d6000fd5b505b60058101546004820154604080518581526001600160a01b0390931660208401528201527fd2aa34a4fdbbc6dff6a3e56f46e0f3ae2a31d7785ff3487aa5c95c642acea501906060016109f1565b60606003805480602002602001604051908101604052809291908181526020018280548015610c3d57602002820191906000526020600020905b815481526020019060010190808311610c29575b5050505050905090565b60006001600160a01b038716610caa5760405162461bcd60e51b815260206004820152602260248201527f42656e656669636961727920616464726573732063616e6e6f74206265207a65604482015261726f60f01b6064820152608401610250565b60008611610d0a5760405162461bcd60e51b815260206004820152602760248201527f41756374696f6e206475726174696f6e206d75737420626520677265617465726044820152660207468616e20360cc1b6064820152608401610250565b600280549081906000610d1c8361126b565b909155505060008181526020819052604090208054336001600160a01b03199182161782556001820180549091166001600160a01b038b161790554260028201819055610d6a908990611258565b6003820155600481018790556005810180546001600160a81b031916905560068101610d9687826112d3565b5060078101610da586826112d3565b5060088101610db485826112d3565b506003805460018101825560008290527fc2575a0e9e593c00f959f8c92f12db2869c3395a3b0502d05e2516446f71f85b01839055600282015490820154604080518581523360208201526001600160a01b038d168183015260608101939093526080830191909152517f1e9fc4128626f087a2c46b8f819387ca9e130c81ced063176def67bc205b3b009181900360a00190a150979650505050505050565b60005b600354811015610f0c578160038281548110610e7557610e75611393565b906000526020600020015403610efa5760038054610e95906001906113a9565b81548110610ea557610ea5611393565b906000526020600020015460038281548110610ec357610ec3611393565b6000918252602090912001556003805480610ee057610ee06113bc565b600190038181906000526020600020016000905590555050565b80610f048161126b565b915050610e57565b5050565b600060208284031215610f2257600080fd5b5035919050565b6000815180845260005b81811015610f4f57602081850181015186830182015201610f33565b506000602082860101526020601f19601f83011685010191505092915050565b6001600160a01b038b811682528a81166020830152604082018a90526060820189905260808201889052861660a082015284151560c082015261014060e08201819052600090610fc183820187610f29565b9050828103610100840152610fd68186610f29565b9050828103610120840152610feb8185610f29565b9d9c50505050505050505050505050565b6001600160a01b038116811461101157600080fd5b50565b6000806040838503121561102757600080fd5b82359150602083013561103981610ffc565b809150509250929050565b6020808252825182820181905260009190848201906040850190845b8181101561107c57835183529284019291840191600101611060565b50909695505050505050565b634e487b7160e01b600052604160045260246000fd5b600082601f8301126110af57600080fd5b813567ffffffffffffffff808211156110ca576110ca611088565b604051601f8301601f19908116603f011681019082821181831017156110f2576110f2611088565b8160405283815286602085880101111561110b57600080fd5b836020870160208301376000602085830101528094505050505092915050565b60008060008060008060c0878903121561114457600080fd5b863561114f81610ffc565b95506020870135945060408701359350606087013567ffffffffffffffff8082111561117a57600080fd5b6111868a838b0161109e565b9450608089013591508082111561119c57600080fd5b6111a88a838b0161109e565b935060a08901359150808211156111be57600080fd5b506111cb89828a0161109e565b9150509295509295509295565b602080825260169082015275105d58dd1a5bdb88191bd95cc81b9bdd08195e1a5cdd60521b604082015260600190565b600181811c9082168061121c57607f821691505b60208210810361123c57634e487b7160e01b600052602260045260246000fd5b50919050565b634e487b7160e01b600052601160045260246000fd5b80820180821115610a2157610a21611242565b60006001820161127d5761127d611242565b5060010190565b601f8211156112ce57600081815260208120601f850160051c810160208610156112ab5750805b601f850160051c820191505b818110156112ca578281556001016112b7565b5050505b505050565b815167ffffffffffffffff8111156112ed576112ed611088565b611301816112fb8454611208565b84611284565b602080601f831160018114611336576000841561131e5750858301515b600019600386901b1c1916600185901b1785556112ca565b600085815260208120601f198616915b8281101561136557888601518255948401946001909101908401611346565b50858210156113835787850151600019600388901b60f8161c191681555b5050505050600190811b01905550565b634e487b7160e01b600052603260045260246000fd5b81810381811115610a2157610a21611242565b634e487b7160e01b600052603160045260246000fdfea26469706673582212200e232b30b513ce367dfc366bd4fad2578080e2781f4cf1eb4e833d7d0c87609c64736f6c63430008140033",
  "immutableReferences": {},
  "source": "// SPDX-License-Identifier: MIT\r\npragma solidity ^0.8.0;\r\n\r\n/**\r\n * @title SimpleAuction\r\n * @dev Simple auction contract that allows auction creation, bidding, and settlement\r\n */\r\ncontract SimpleAuction {\r\n  // Auction struct\r\n  struct Auction {\r\n    address creator; // Auction creator\r\n    address payable beneficiary; // Beneficiary (final recipient)\r\n    uint256 startTime; // Start time\r\n    uint256 endTime; // End time\r\n    uint256 highestBid; // Highest bid\r\n    address highestBidder; // Highest bidder\r\n    bool ended; // Whether ended\r\n    string title; // Auction title\r\n    string description; // Auction description\r\n    string imageUrl; // Image URL\r\n  }\r\n\r\n  // Mapping from auction ID to auction object\r\n  mapping(uint256 => Auction) public auctions;\r\n\r\n  // Mapping from auction ID to previous bidder's bid\r\n  mapping(uint256 => mapping(address => uint256)) public pendingReturns;\r\n\r\n  // Total number of auctions created\r\n  uint256 public auctionCount;\r\n\r\n  // Active auction ID array\r\n  uint256[] public activeAuctions;\r\n\r\n  // Events\r\n  event AuctionCreated(\r\n    uint256 auctionId,\r\n    address creator,\r\n    address beneficiary,\r\n    uint256 startTime,\r\n    uint256 endTime\r\n  );\r\n  event HighestBidIncreased(uint256 auctionId, address bidder, uint256 amount);\r\n  event AuctionEnded(uint256 auctionId, address winner, uint256 amount);\r\n  event BidRefunded(uint256 auctionId, address bidder, uint256 amount);\r\n\r\n  /**\r\n   * @dev Create a new auction\r\n   * @param _beneficiary Beneficiary address\r\n   * @param _duration Auction duration (seconds)\r\n   * @param _startingPrice Starting price\r\n   * @param _title Auction title\r\n   * @param _description Auction description\r\n   * @param _imageUrl Image URL\r\n   */\r\n  function createAuction(\r\n    address payable _beneficiary,\r\n    uint256 _duration,\r\n    uint256 _startingPrice,\r\n    string memory _title,\r\n    string memory _description,\r\n    string memory _imageUrl\r\n  ) external returns (uint256) {\r\n    require(_beneficiary != address(0), \"Beneficiary address cannot be zero\");\r\n    require(_duration > 0, \"Auction duration must be greater than 0\");\r\n\r\n    uint256 newAuctionId = auctionCount;\r\n    auctionCount++;\r\n\r\n    Auction storage auction = auctions[newAuctionId];\r\n    auction.creator = msg.sender;\r\n    auction.beneficiary = _beneficiary;\r\n    auction.startTime = block.timestamp;\r\n    auction.endTime = block.timestamp + _duration;\r\n    auction.highestBid = _startingPrice;\r\n    auction.highestBidder = address(0);\r\n    auction.ended = false;\r\n    auction.title = _title;\r\n    auction.description = _description;\r\n    auction.imageUrl = _imageUrl;\r\n\r\n    activeAuctions.push(newAuctionId);\r\n\r\n    emit AuctionCreated(\r\n      newAuctionId,\r\n      msg.sender,\r\n      _beneficiary,\r\n      auction.startTime,\r\n      auction.endTime\r\n    );\r\n\r\n    return newAuctionId;\r\n  }\r\n\r\n  /**\r\n   * @dev Get specific auction information\r\n   */\r\n  function getAuction(\r\n    uint256 auctionId\r\n  )\r\n    external\r\n    view\r\n    returns (\r\n      address creator,\r\n      address payable beneficiary,\r\n      uint256 startTime,\r\n      uint256 endTime,\r\n      uint256 highestBid,\r\n      address highestBidder,\r\n      bool ended,\r\n      string memory title,\r\n      string memory description,\r\n      string memory imageUrl\r\n    )\r\n  {\r\n    require(auctionId < auctionCount, \"Auction does not exist\");\r\n    Auction storage auction = auctions[auctionId];\r\n\r\n    return (\r\n      auction.creator,\r\n      auction.beneficiary,\r\n      auction.startTime,\r\n      auction.endTime,\r\n      auction.highestBid,\r\n      auction.highestBidder,\r\n      auction.ended,\r\n      auction.title,\r\n      auction.description,\r\n      auction.imageUrl\r\n    );\r\n  }\r\n\r\n  /**\r\n   * @dev Get all active auction IDs\r\n   */\r\n  function getActiveAuctions() external view returns (uint256[] memory) {\r\n    return activeAuctions;\r\n  }\r\n\r\n  /**\r\n   * @dev Place a bid\r\n   */\r\n  function placeBid(uint256 auctionId) external payable {\r\n    require(auctionId < auctionCount, \"Auction does not exist\");\r\n    Auction storage auction = auctions[auctionId];\r\n\r\n    require(block.timestamp <= auction.endTime, \"Auction has ended\");\r\n    require(!auction.ended, \"Auction has been manually ended\");\r\n    require(\r\n      msg.value > auction.highestBid,\r\n      \"Bid must be higher than current highest bid\"\r\n    );\r\n\r\n    // If there is already a bid, record the previous highest bidder's bid for refund\r\n    if (auction.highestBidder != address(0)) {\r\n      pendingReturns[auctionId][auction.highestBidder] += auction.highestBid;\r\n    }\r\n\r\n    // Update highest bid and bidder\r\n    auction.highestBid = msg.value;\r\n    auction.highestBidder = msg.sender;\r\n\r\n    emit HighestBidIncreased(auctionId, msg.sender, msg.value);\r\n  }\r\n\r\n  /**\r\n   * @dev Withdraw previous bid\r\n   */\r\n  function withdraw(uint256 auctionId) external {\r\n    require(auctionId < auctionCount, \"Auction does not exist\");\r\n\r\n    uint256 amount = pendingReturns[auctionId][msg.sender];\r\n    require(amount > 0, \"No amount to withdraw\");\r\n\r\n    // Set amount to 0 first to prevent reentrancy attacks\r\n    pendingReturns[auctionId][msg.sender] = 0;\r\n\r\n    // Send refund\r\n    (bool success, ) = msg.sender.call{value: amount}(\"\");\r\n    require(success, \"Refund failed\");\r\n\r\n    emit BidRefunded(auctionId, msg.sender, amount);\r\n  }\r\n\r\n  /**\r\n   * @dev End auction\r\n   */\r\n  function endAuction(uint256 auctionId) external {\r\n    require(auctionId < auctionCount, \"Auction does not exist\");\r\n    Auction storage auction = auctions[auctionId];\r\n\r\n    // Check if caller is auction creator or auction has passed end time\r\n    require(\r\n      msg.sender == auction.creator || block.timestamp > auction.endTime,\r\n      \"Only creator can end auction before end time\"\r\n    );\r\n    require(!auction.ended, \"Auction has already ended\");\r\n\r\n    auction.ended = true;\r\n\r\n    // Remove from active auctions\r\n    _removeFromActiveAuctions(auctionId);\r\n\r\n    // If there is a bid, send funds to beneficiary\r\n    if (auction.highestBidder != address(0)) {\r\n      auction.beneficiary.transfer(auction.highestBid);\r\n    }\r\n\r\n    emit AuctionEnded(auctionId, auction.highestBidder, auction.highestBid);\r\n  }\r\n\r\n  /**\r\n   * @dev Check amount user can withdraw from a specific auction\r\n   */\r\n  function pendingReturn(\r\n    uint256 auctionId,\r\n    address bidder\r\n  ) external view returns (uint256) {\r\n    return pendingReturns[auctionId][bidder];\r\n  }\r\n\r\n  /**\r\n   * @dev Remove auction from active auctions\r\n   */\r\n  function _removeFromActiveAuctions(uint256 auctionId) private {\r\n    for (uint i = 0; i < activeAuctions.length; i++) {\r\n      if (activeAuctions[i] == auctionId) {\r\n        activeAuctions[i] = activeAuctions[activeAuctions.length - 1];\r\n        activeAuctions.pop();\r\n        break;\r\n      }\r\n    }\r\n  }\r\n}\r\n",
  "sourcePath": "E:\\newDevelop\\lh\\vue-manager\\vue-manager\\contracts\\SimpleAuction.sol",
  "compiler": {
    "name": "solc",
    "version": "0.8.20+commit.a1b79de6.Emscripten.clang"
  },
  "schemaVersion": "3.4.16",
  "updatedAt": "2025-05-12T11:30:02.783Z",
  "devdoc": {
    "details": "Simple auction contract that allows auction creation, bidding, and settlement",
    "kind": "dev",
    "methods": {
      "createAuction(address,uint256,uint256,string,string,string)": {
        "details": "Create a new auction",
        "params": {
          "_beneficiary": "Beneficiary address",
          "_description": "Auction description",
          "_duration": "Auction duration (seconds)",
          "_imageUrl": "Image URL",
          "_startingPrice": "Starting price",
          "_title": "Auction title"
        }
      },
      "endAuction(uint256)": {
        "details": "End auction"
      },
      "getActiveAuctions()": {
        "details": "Get all active auction IDs"
      },
      "getAuction(uint256)": {
        "details": "Get specific auction information"
      },
      "pendingReturn(uint256,address)": {
        "details": "Check amount user can withdraw from a specific auction"
      },
      "placeBid(uint256)": {
        "details": "Place a bid"
      },
      "withdraw(uint256)": {
        "details": "Withdraw previous bid"
      }
    },
    "title": "SimpleAuction",
    "version": 1
  },
  "userdoc": {
    "kind": "user",
    "methods": {},
    "version": 1
  }
}